:100000000C9491000C94E6010C94BF010C94AE008A
:100010000C94AE000C94AE000C94AE000C94AE00A8
:100020000C94AE000C94AE000C94AE000C94AE0098
:100030000C94AE000C94AE000C94AE000C94AE0088
:100040000C9475010C94AE000C940D020C942B02D0
:100050000C94AE000C94AE000C94AE000C94AE0068
:100060000C94AE000C94AE00000102050D0E0F10B2
:10007000111241524D3B414E474C453B484F52496E
:100080005A4F4E3B4D41473B4245455045523B4CF4
:1000900045444D41583B4C45444C4F573B4C4C49D3
:1000A000474854533B43414C49423B474F564552C6
:1000B0004E4F523B00524F4C4C3B50495443483BEF
:1000C0005941573B414C543B506F733B506F7352F7
:1000D0003B4E6176523B4C4556454C3B4D41473B70
:1000E00056454C3B0000000000250028002B000076
:1000F000000000240027002A00040404040404046F
:1001000004020202020202030303030303010204C6
:100110000810204080010204081020010204081089
:10012000200011241FBECFEFD8E0DEBFCDBF11E00D
:10013000A0E0B1E0E2ECFAE302C005900D92AC362B
:10014000B107D9F726E0ACE6B1E001C01D92A030BE
:10015000B207E1F70E949E080C945F1D0C9400000A
:1001600008953FB7F8948091820590918305A091FE
:100170008405B091850526B5A89B05C02F3F19F0D1
:100180000196A11DB11D3FBFBA2FA92F982F882717
:10019000820F911DA11DB11DBC01CD0142E0660F72
:1001A000771F881F991F4A95D1F708958F929F92C4
:1001B000AF92BF92CF92DF92EF92FF926B017C01E0
:1001C0000E94B1004B015C01C114D104E104F104AF
:1001D000F1F00E94B100DC01CB0188199909AA094C
:1001E000BB09883E9340A105B10570F321E0C21A16
:1001F000D108E108F10888EE880E83E0981EA11C62
:10020000B11CC114D104E104F10419F7DDCFFF9052
:10021000EF90DF90CF90BF90AF909F908F90089518
:100220000E94B10078942091E3043091E404AB0182
:10023000421B530B9A017093E4046093E304293B3F
:100240005BE0350718F01092E20408958091E20413
:10025000A9014558534043315540B8F58C30A8F5B5
:10026000E82FF0E0EE0FFF1FEC5FFE4F318320839D
:10027000843078F42A3D334060F021E030E0082EED
:1002800001C0220F0A94EAF79091E104292B2093F0
:10029000E1049091E1049F30C1F41092E1042091B7
:1002A0009E0330919F03253131055CF020919E0320
:1002B00030919F032451310930939F0320939E0373
:1002C00004C010929F0310929E038F5F8093E204FC
:1002D00008952FB7F89460917E0570917F05809105
:1002E0008005909181052FBF08951F920F920FB640
:1002F0000F9211242F933F938F939F93AF93BF93AC
:1003000080917E0590917F05A0918005B091810537
:1003100030917D0523E0230F2D3720F40196A11D98
:10032000B11D05C026E8230F0296A11DB11D209323
:100330007D0580937E0590937F05A0938005B09303
:1003400081058091820590918305A0918405B091EB
:1003500085050196A11DB11D8093820590938305AB
:10036000A0938405B0938505BF91AF919F918F9124
:100370003F912F910F900FBE0F901F9018951F92D5
:100380000F920FB60F9211242F933F934F935F93C9
:100390006F937F938F939F93AF93BF93EF93FF934D
:1003A000E0910201F09103010995FF91EF91BF9156
:1003B000AF919F918F917F916F915F914F913F91FD
:1003C0002F910F900FBE0F901F9018951F920F92B4
:1003D0000FB60F9211242F933F934F935F936F9318
:1003E0007F938F939F93AF93BF93EF93FF93E0918E
:1003F0000001F09101010995FF91EF91BF91AF913B
:100400009F918F917F916F915F914F913F912F912C
:100410000F900FBE0F901F9018951F920F920FB65E
:100420000F9211248F939F93EF93FF939091C600A7
:10043000E0916E0181E08E0FF0E0E159FE4F908374
:1004400080936E01FF91EF919F918F910F900FBE5E
:100450000F901F9018951F920F920FB60F921124B4
:100460008F939F93EF93FF9380916C0190916D0117
:10047000981761F08F5F87FD80E0E82FF0E0E35090
:10048000FB4F90819093C60080936C0190916D0119
:10049000891305C08091C1008F7D8093C100FF91B9
:1004A000EF919F918F910F900FBE0F901F90189515
:1004B0008F929F92AF92BF92CF92DF92EF92FF9274
:1004C0000F931F93CF93DF9383E40E94570880918B
:1004D000980590E0982F882720919905822B959573
:1004E000879595958795909301038093000380915C
:1004F000960590E0982F882720919705822B91955B
:100500008195910995958795959587959093030386
:100510008093020380919A0590E0982F882720917C
:100520009B05822B91958195910995958795959538
:1005300087959093050380930403209114033091D1
:1005400015032115310509F476C0C9016AE070E090
:100550000E94C51CA090A305E0E0F3E0D1EF8D2E32
:10056000D4E09D2E05EE14E0ABEEB4E0B12C2115E5
:1005700042E0340751F4E401188219821A821B8286
:100580004081518111965C934E930097B1F4608144
:1005900071814D915C9111977B01E41AF50AA701D5
:1005A000F7FE03C05195419551094930510514F0AA
:1005B000BB24B39411967C936E9341915191052E77
:1005C000000C660B770BE401C880D980EA80FB80C1
:1005D0004C0D5D1D6E1D7F1D499359936993799351
:1005E0004E01C9E07595679557954795CA95D1F71E
:1005F000E801499359938E012130310511F443E00C
:10060000A42E1296D3E0E630FD0709F0B0CFA092F9
:10061000A305BB2041F088EE93E0909315038093EF
:1006200014032D9A2BC021503109309315032093C8
:1006300014032D9823C0C5EED4E0E0E0F3E0ABEE68
:10064000B4E08991999120813181281B390B4D911A
:100650005C911197CA01805293402817390734F0F2
:10066000805C994F281739070CF4C9018193919345
:100670008D939D9343E0E630F40719F7DF91CF9116
:100680001F910F91FF90EF90DF90CF90BF90AF90B0
:100690009F908F9008958093BC008FEF9091BC0045
:1006A00097FD0EC08150D1F71092BC0080916F026F
:1006B0009091700201969093700280936F0208955A
:1006C0000895CF93C82F84EA0E944B03C093BB00C8
:1006D00084E8CF910C944B032091B40230E0D9010F
:1006E000A359BE4F9C919F5F97FD90E0F901E350A5
:1006F000FB4FE90FF11D80839C93F901ED54FD4FF1
:100700009081892780830895CF93DF93D82FC62FB8
:1007100084E20E946C038DE40E946C03D11102C03C
:100720008EE301C081E20E946C03E091B402F0E02C
:10073000ED54FD4F10828C2F0E946C03E091B402A7
:10074000F0E0EF54FD4F8081DF91CF910C946C036A
:10075000EEEDF2E08081918195958795959587954D
:100760008A5F9109909389008093880082819381A8
:1007700095958795959587958A5F910990938B00BC
:1007800080938A0084819581959587959595879525
:100790008A5F8093B300868197819595879595951B
:1007A00087958A5F8093B40008959B01AC01AA27C6
:1007B000429FB0015302C00134039A0B700D811D9A
:1007C0009A1F52039A0B700D811D9A1F11240895D0
:1007D0006F927F928F929F92AF92BF92CF92DF9251
:1007E000EF92FF920F931F93CF93DF93EC018B0156
:1007F0006A807B80CE80DF80EA84FB84B301F801CD
:10080000808191810E94D5034B015C01B601F80102
:10081000828193810E94D503AB01BC01480D591D13
:100820006A1D7B1D88859985AA85BB85841B950BD0
:10083000A60BB70B88879987AA87BB87B701F801F2
:10084000808191810E94D5034B015C01B601F801C2
:10085000848195810E94D503861A970AA80AB90A4D
:1008600088819981AA81BB81880E991EAA1EBB1E10
:1008700088829982AA82BB82B701F8018281938122
:100880000E94D5036B017C01B301F801848195813D
:100890000E94D503DC01CB018C0D9D1DAE1DBF1D3B
:1008A0000C811D812E813F81800F911FA21FB31FDC
:1008B0008C839D83AE83BF83DF91CF911F910F9176
:1008C000FF90EF90DF90CF90BF90AF909F908F9070
:1008D0007F906F9008954F925F926F927F928F9268
:1008E0009F92AF92BF92CF92DF92EF92FF92CF93FF
:1008F0006B017C0149015A010E94C01B2B013C0184
:10090000B701A601F7FE07C044275527BA014C19C5
:100910005D096E097F09D501C401B7FE07C08827AC
:100920009927DC0188199909AA09BB09C1E0481770
:1009300059076A077B0744F0C0E0C501B4010E9473
:10094000C01BA301920108C0C501B4010E94C01BD5
:100950009B01AC01C301B2010E94161B2B013C019B
:100960009B01AC010E944C1C21ED31E944E650E4AE
:100970000E94AA1A9B01AC01C301B2010E94161B7E
:1009800023EC3DEC4FEF54E40E944C1C0E94881B6A
:100990009B01CC2359F0B7FE12C0F7FE03C02850CC
:1009A00037400DC09B01285F384F09C0F7FC03C0DA
:1009B00024E833E002C02CE73CEF261B370BC901CB
:1009C000CF91FF90EF90DF90CF90BF90AF909F902E
:1009D0008F907F906F905F904F90089540E150E02E
:1009E00060E070E086E895E00E94811AE6E8F5E0B4
:1009F00085E59FE09E0F9E1719F02191820FFBCF96
:100A000090919505891741F01092860588E893E149
:100A100090938805809387050895CF92DF92EF9297
:100A2000FF920F931F93CF93DF93082F142FC0E0F3
:100A3000C62ED12CE12CF12CC117B1F0D0E0D0178B
:100A400059F02C9A409A1D9AC701B6010E94D6000F
:100A50002C984098DF5FF3CF6CE370E080E090E08B
:100A60000E94D600CF5FE8CFDF91CF911F910F9109
:100A7000FF90EF90DF90CF9008952F923F924F928A
:100A80005F926F927F928F929F92AF92BF92CF921E
:100A9000DF92EF92FF920F931F93CF93DF93CDB727
:100AA000DEB72A970FB6F894DEBF0FBECDBF109207
:100AB000860546E850E060E170E086E193E00E9440
:100AC000811AE6E1F3E085E595E89E0F9E1719F09F
:100AD0002191820FFBCF90919B038913B1C0E090CD
:100AE0003503F12C009134039BECC92E92E0D92EF2
:100AF000612C712C10E028EA822E24E0922EA12C89
:100B0000B12C669C9001679C300D300D11242F5044
:100B10003109E29EC001E39E900DF29E900D1124DA
:100B20008A509A4F869DD001879DB00D969DB00D3D
:100B3000112498010E94451DA50194010E940F1DDA
:100B4000F601219331936F01FFEF6F1A7F0A25E0C1
:100B500062167104B1F61091390304E6011BE4E654
:100B60001E9FC00111249C838B8320903A03422C4A
:100B7000512C612C712CE0909203F09093038EE93C
:100B800097E06C01CE18DF0885EB92E09A838983A9
:100B90001A86312C80E1882E87E2982EA12CB12C68
:100BA0009A85911B9987191614F0412F01C0402F87
:100BB000E985EE02D001112491010E94451D6D834B
:100BC0007E838F839887242F30E0D9010E94361DC1
:100BD0009B01AC016D817E818F8198850E940F1DE4
:100BE000DA01C9018C599F4FAF4FBF4F8419950946
:100BF000A609B709F9852F2FFF0F330B289FA001F6
:100C0000299F500D389F500D11242B813C81240FBA
:100C1000351FD6010E94361DA50194010E94ED1CCE
:100C20002E0D3F1DE981FA8121933193FA83E983E7
:100C3000FA85F65FFA87FE3609F0B2CF81E00BC085
:100C400043E064E686E00E940D0583E08093A305FF
:100C50000E946A0680E02A960FB6F894DEBF0FBEA7
:100C6000CDBFDF91CF911F910F91FF90EF90DF905B
:100C7000CF90BF90AF909F908F907F906F905F903C
:100C80004F903F902F900895CF93C82F10928605D4
:100C9000E6E1F3E095E585E88E0F8E1719F02191D6
:100CA000920FFBCF90939B0346E850E060E170E029
:100CB00086E193E00E94911A0E943D05C13029F41B
:100CC00041E064E18FE00E940D0581E08093A3057F
:100CD000CF91089581E2809316032EE120931703AC
:100CE00097E1909318038093190320931A0390932C
:100CF0001B039AE590932B032AE020932C0324E610
:100D000020932D0324E420931C032DE220931D0344
:100D100010921E0320E420931F0329E12093200357
:100D200038E1309321033FE03093220310922303F4
:100D30001092240332E2309325033EE030932603E1
:100D400035E330932703209328038093290383E519
:100D500080932A0388E280932E031092310310922D
:100D60003203109233039093340381E4809335036C
:100D700010923603109237031092380382E3809367
:100D8000390310923A03EFE3F3E01192119283E0FA
:100D9000E335F807D1F710923C0310923B03109211
:100DA0003E0310923D031092530382EE94E0909321
:100DB0008D0380938C038DEC80938E0385E280936A
:100DC0008F0383E28093900381E2809391038AE111
:100DD00094E0909393038093920387E090E0909344
:100DE00095038093940384E090E09093970380931D
:100DF00096038AE08093980388E790E090939A03A3
:100E00008093990380E00C94440680919C0381FFB9
:100E100003C08D7F80939C0308952091140330912B
:100E2000150380919C03232BF9F482FF1DC02091B0
:100E30009E0330919F0322303105B4F4982F9274B1
:100E400091F4826080939C0380911203909113032C
:100E500090930D0380930C038091D502813178F03B
:100E600080934D010895089581FD09C041E06FEF21
:100E700082E00E940D0581E08093A4050895089505
:100E80008091FC05882319F028981092FC0508959C
:100E9000CF92DF92EF92FF920F931F93CF93DF9346
:100EA000E091A705E11117C0E1E0E093A705909359
:100EB000D4058093D3057093D6056093D5055093E0
:100EC000D8054093D7051093DA050093D9053093E0
:100ED000DC052093DB05E091C505E33030F5F0E05B
:100EE000EE0FFF1FED52FA4FC081D181209709F418
:100EF0004CC0E090DB05F090DC058091FC05811191
:100F000065C00E9469010091B4051091B50520915A
:100F1000B6053091B7050E0D1F1D211D311D60173F
:100F200071078207930718F530C0C090B405D090C0
:100F3000B505E090B605F090B7050E9469012091D3
:100F4000D9053091DA05DC01CB01821B930BA10995
:100F5000B109C816D906EA06FB06B8F41092C50511
:100F60001092A70510929C051092A30525C081E060
:100F70008093FC05289A0E9469016093B4057093E0
:100F8000B5058093B6059093B7059091AC05809117
:100F9000C505913051F0E82FF0E0EE0FFF1FED5244
:100FA000FA4F20813181232BA9F5833018F48F5F0C
:100FB0008093C5051092AC05DF91CF911F910F91E1
:100FC000FF90EF90DF90CF900C9440070E94690152
:100FD0000091B4051091B5052091B6053091B70583
:100FE0000C0F1D1F211D311D60177107820793070C
:100FF00060F21092FC0528980E9469016093B40584
:101000007093B5058093B6059093B70581E0809302
:10101000AC05BBCFDF91CF911F910F91FF90EF9067
:10102000DF90CF900895EF92FF921F93CF93DF93BD
:101030001F92CDB7DEB7182F80ED69830E94610340
:101040008BEBE82EF12CF701108384E80E944B0310
:101050006981F701608384E80E944B0384E98093EF
:10106000BC000F90DF91CF911F91FF90EF900895FA
:1010700090E0FC01E35FFE4F2491FC01E750FF4F3D
:101080008491882399F090E0880F991FFC01E15129
:10109000FF4FA591B491FC01EB51FF4F85919491C5
:1010A0008FB7F894EC91E22BEC938FBF08951F93C8
:1010B000CF93DF93C82F80ED0E946103C093BB00E4
:1010C00084E80E944B0381ED0E946103C6E9D5E0EC
:1010D0001C2F1B5F1C1739F084EC0E944B0380917E
:1010E000BB008993F7CF84E80E944B038091BB003B
:1010F00094E99093BC0080939B05DF91CF911F9161
:101100000895E6E8F5E085E59FE09E0F9E1719F04B
:101110002191820FFBCF8093950540E150E060E084
:1011200070E086E895E00E94911A41E064E18FE06A
:101130000E940D0581E08093A3050895CF93DF936E
:10114000CDB7DEB7ED970FB6F894DEBF0FBECDBFBB
:10115000789484B5826084BD84B5816084BD85B592
:10116000826085BD85B5816085BD80916E0081609E
:1011700080936E0010928100809181008260809344
:101180008100809181008160809381008091800046
:101190008160809380008091B10084608093B10071
:1011A0008091B00081608093B00080917A0084606B
:1011B00080937A0080917A00826080937A00809197
:1011C0007A00816080937A0080917A0080688093B1
:1011D0007A001092C10082E08093C0001092C50096
:1011E00080E18093C4008091C10088698093C10030
:1011F0008DE00E94380888E00E94380805E311E07D
:1012000074E0F72EF00ED8018D918D010E94380800
:10121000F012F9CF809180008068809380008091E7
:1012200080008062809380008091B000806880930D
:10123000B0008091B00080628093B00088EE93E0AF
:101240009093DF028093DE029093E1028093E002AC
:101250009093E3028093E2029093E5028093E4028C
:101260000E94A8036CE271E080E090E00E94D6004A
:101270000E94EE04109286050E943D05809186052D
:10128000882321F0815080938605F6CF0E94EE04DA
:101290000E943D05409186054F5F68E282E00E9412
:1012A0000D0580E191E09093010180930001809110
:1012B0006900836080936900E89A15E00CE064E0BF
:1012C000F62E449845981092B9000093B800F09219
:1012D000BC001092700210926F0260E88BE60E94D0
:1012E000130862E370E080E090E00E94D60063E0C3
:1012F0008BE60E94130860E08AE10E94130868E10F
:101300008BE10E94130862E087E30E94130860E10A
:101310008CE10E94130880916F0290917002892BDA
:1013200011F0115071F60E94B1007093A204609305
:10133000A10480E092E0909315038093140388EC5D
:1013400090E09093A1038093A003389A4098249A48
:101350002C981092200480919C03806880939C03B9
:1013600089EA94E04AE0842E880E88AE88E690E010
:101370005AE0952E980E99AE6091DD047091DE04CE
:101380008091DF049091E0042091DB043091DC0433
:101390005B01A21AB30A1A141B040CF097C2AB012A
:1013A000405E514B5093DC044093DB048091EA0390
:1013B0008F5F833019F08093EA0302C01092EA0332
:1013C0002EE4C22E21E0D22E03EC14E031E3E32E12
:1013D00034E0F32E42EA53E0D80120E030E08FB74A
:1013E000F894F60191916F01E92FF0E0EE0FFF1FE5
:1013F000EC5FFE4F608171818FBF6A3DF3E07F0734
:1014000038F42430310520F480919C0381FD38C0EC
:10141000FA01A080B180828193818A0D9B1D029682
:10142000A480B5808A0D9B1D860F971F9695879582
:1014300096958795ED91FC91119733978E179F079D
:1014400028F4FC0132961196FC93EE93ED91FC91F9
:1014500011973396E817F90720F4029711969C9399
:101460008E938091EA03F901EE0FFF1FE20FF31F45
:10147000E80FF11DEE0FFF1FEE55FC4F71836083E7
:1014800028303105A8F480913004882389F08150F8
:101490008093300410929F0310929E03F701808185
:1014A00091818538F3E09F071CF011969C938E93F1
:1014B0002F5F3F4F129662E0E60EF11C4A5F5F4FCE
:1014C0002C30310509F08BCF80919E0390919F03C2
:1014D00040978CF180919C0381FF2DC08CED95E0AD
:1014E0009093C4048093C3049093C6048093C5046E
:1014F0009093C8048093C70480918C0390918D03CE
:101500009093CA048093C90480919E0390919F0395
:10151000863A91053CF00E94050780919C038E7FDE
:1015200080939C038091C1049091C2040196909392
:10153000C2048093C10480919E0390919F034097C1
:1015400034F080919C0381FD02C00C94DA198091E3
:101550009E0390919F03019690939F0380939E0317
:1015600080E0282F30E03595279535952795822FF7
:10157000D8014D915D918D014D34B4E05B0724F0AD
:1015800080684C3657400CF48064F4E00B3C1F0735
:1015900041F79091C004891308C09091BF049A3F0D
:1015A00030F49F5F9093BF0402C01092BF048093F9
:1015B000C0042091C9043091CA042D34344084F50C
:1015C0001092BC041092BB041092BE041092BD0491
:1015D0001092B7041092B8041092B9041092BA0491
:1015E0001092B4041092B3041092B6041092B50491
:1015F00020913F0330914003232B91F02091A904C7
:1016000090919C03222331F090FF04C08AAF0E9486
:101610000D0705C091FF04C08AAF0E9405078AAD7F
:101620009091BF04943109F08CC090919C0391FF7C
:101630000DC020913F0330914003232B09F081C05E
:101640008F3509F07EC00E9405077BC0873539F4CD
:1016500020E032E0309315032093140332C08A3522
:1016600039F52091A7043091A804232B59F010924A
:10167000A8041092A70421E030E03093A604209340
:10168000A5041FC091E02091A3043091A404232B52
:1016900009F090E0292F30E03093A4042093A304B4
:1016A000992311F092E001C093E090939C0509C04A
:1016B0008B3639F40E94B1007093A2046093A104A8
:1016C00040C020913F0330914003232B29F48F36F3
:1016D00019F40E940D0735C0873939F480E092E093
:1016E0009093A00480939F042CC08B3B31F4809195
:1016F0003D0390913E03029607C0873B51F48091D1
:101700003D0390913E03029790933E0380933D03E7
:1017100013C08E3B31F480913B0390913C030296C1
:1017200007C08D3B71F480913B0390913C0302977D
:1017300090933C0380933B0381E00E944406109207
:10174000BF048091AE04882311F08FEF0CC080910C
:10175000AF04882319F01092200407C080919C03E5
:1017600081FFF9CF85E0809320048091A3049091BC
:10177000A404892BC9F080919C0381FF15C080913E
:10178000C9049091CA048D34944074F08091A904E6
:1017900081110AC082E390E090939E0480939D049F
:1017A0001092A4041092A3048091B1048823C9F07C
:1017B00080919B0490919C04892B61F48091A704F3
:1017C0009091A804892B31F482E390E090939E04D9
:1017D00080939D04ABECB4E080E090E0E0E0F0E0CA
:1017E00015C08091A7049091A804892B99F380914A
:1017F0009C0381FDEFCF1092A8041092A70481E012
:1018000090E09093A6048093A504E4CF4D915D9160
:1018100061E070E0453A26E0520714F460E070E0C1
:101820009C012E5F3F4F4B0102C0880C991C2A95EA
:10183000E2F7940161E070E0443105E0500714F0F4
:1018400060E070E0082E02C0660F771F0A94E2F78E
:10185000622B732B4551554021E030E04F38514009
:1018600010F020E030E0AC014F5F5F4F02C0220F6C
:10187000331F4A95E2F7622B732BE62BF72B039667
:101880008C30910519F62FE333E069EA74E0D90151
:101890008D919D919D018E239F2341E0892B09F419
:1018A00040E0DB014D93BD0188AC8A12F0CF9091EE
:1018B000AA0480919C03911134C020919E03309121
:1018C0009F03203131056CF50C94FB1920919A048B
:1018D000223059F028F4222341F0213031F064C045
:1018E000233019F0243009F05FC010929A0420913F
:1018F000B00421110C940A1A28E438EE41E050E0BB
:101900000E94ED1C277081E090E001C0880F2A95AD
:10191000EAF790912004892311F00C940A1A0C9490
:101920000D1A83FD0BC01092B4041092B3041092F0
:10193000B6041092B504886080939C038091AB0438
:10194000882311F40C94E31980919C03877F809382
:101950009C0384FD0BC01092B4041092B304109247
:10196000B6041092B504806180939C038091A90411
:10197000811105C080919C03816080939C038091BC
:10198000AC04882311F40C94F41980919C0385FD18
:101990000BC0806280939C0380911203909113038B
:1019A00090930D0380930C030E94B1006093DD04BB
:1019B0007093DE048093DF049093E0042091A104EF
:1019C0003091A2045B01A21AB30AB0929904A092CA
:1019D000980400EFA0160AE0B00630F37093A2045A
:1019E0006093A1048BE30E9457088091960590E0D4
:1019F000982F882720919705822B919581959109A1
:101A000023E0959587952A95E1F7909307038093B6
:101A100006038091980590E0982F882720919905DA
:101A2000822B91958195910943E0959587954A95EB
:101A3000E1F7909309038093080380919A0590E061
:101A4000982F882720919B05822B63E09595879599
:101A50006A95E1F790930B0380930A0380919F04AA
:101A60009091A004009709F450C001979093A004AE
:101A700080939F04E1E0F4E020E030E08F3F11E04C
:101A8000910721F41082118212821382D901A2518E
:101A9000BD4F5896CD90DC9059970D2C000CEE0858
:101AA000FF0840815181628173814C0D5D1D6E1D67
:101AB0007F1D4193519361937193D901AA57BA4FF6
:101AC00019E075956795579547951A95D1F7129630
:101AD0005C934E9311972E5F3F4F2630310571F680
:101AE000892B99F480918B0590918C05925090935D
:101AF0008C0580938B0510923C0310923B0310924F
:101B00003E0310923D030E94810880919D049091B4
:101B10009E048233910549F520918705309188050F
:101B20003093FC032093FB032091890530918A05B3
:101B30003093FE032093FD0320918B0530918C059B
:101B4000309300042093FF0320913B0330913C032A
:101B50003093F8032093F70320913D0330913E0327
:101B60003093FA032093F90303C0009709F467C088
:101B7000EBEEF3E006E013E027E835E08233910571
:101B800021F41082118212821382D8014D915C914E
:101B90001197052E000C660B770BC080D180E28078
:101BA000F3804C0D5D1D6E1D7F1D4193519361931C
:101BB00071931D921D928D01D9011D921D929D015F
:101BC000B3E0E73FFB07D1F68130910599F510921C
:101BD0009C0410929B049093A8048093A70421E096
:101BE0002093A3052091FB033091FC0330938805DB
:101BF000209387052091FD033091FE0330938A05E1
:101C0000209389052091FF033091000430938C05C7
:101C100020938B052091F7033091F80330933C0318
:101C200020933B032091F9033091FA0330933E0354
:101C300020933D03019790939E0480939D0480918F
:101C4000A5049091A604019709F045C01092A6043E
:101C50001092A5046091EB037091EC038091ED0369
:101C60009091EE0322E330E040E050E00E940F1D2F
:101C700030938805209387056091EF037091F003FE
:101C80008091F1039091F20322E330E040E050E0D4
:101C90000E940F1D30938A05209389056091F303FC
:101CA0007091F4038091F5039091F60322E330E004
:101CB00040E050E00E940F1D325030938C0520937D
:101CC0008B0510923C0310923B0310923E0310923E
:101CD0003D030E94810880910603909107032091A3
:101CE000870530918805821B930B9093070380939F
:101CF0000603809108039091090320918905309192
:101D00008A05821B930B90930903809308038091AB
:101D10000A0390910B0320918B0530918C05821B57
:101D2000930B90930B0380930A030E94B1006B0105
:101D30007C0180911D0490911E04B601681B790BF3
:101D400080E090E00E94BE1B29E134E442E959E3BF
:101D50000E944C1C2B013C01D0921E04C0921D0419
:101D600071E1272E74E0372EEEEEF2E0F8A3EF8F4C
:101D70008E010F5F1F4F1C8F0B8F8F01C12CD12C39
:101D800076011F8AD1018D909D90AD90BC90D501B8
:101D9000C40164E0B695A795979587956A95D1F7A4
:101DA000F80191838083408D518D481B590B052E7E
:101DB000000C660B770B480D591D6A1D7B1DF10148
:101DC00041935193619371931F01BC010E94D5030C
:101DD000C60ED71EE81EF91ED80152966D917C9151
:101DE0005397072E000C880B990B0E94C01BA30170
:101DF00092010E944C1C0E94881BEB8DFC8D61930C
:101E00007193FC8FEB8FFF89FF5FFF8B0E5F1F4F7E
:101E1000F33009F0B7CFBE016F5F7F4F89E291E0E9
:101E20000E94E803BE016F5F7F4F8DE191E00E9449
:101E3000E803CD2CDE2CEF2CFF24E7FCFA9407E618
:101E4000C01A03E0D00A59E2E52E51E0F52E0EEE5D
:101E500012E01F8A188E198E1A8E22E3C21621E014
:101E6000D206F8F4D8018D919C91F701228133813B
:101E7000821B930B092E000CAA0BBB0B36E0880FBC
:101E8000991FAA1FBB1F3A95D1F7408151816281EA
:101E90007381840F951FA61FB71F80839183A28330
:101EA000B383D70112966D917C911397F8018191BC
:101EB00091918F010E94D5038F88988CA98CBA8C40
:101EC000860E971EA81EB91E8F8A988EA98EBA8E6E
:101ED00024E0E20EF11C35E3E31631E0F30609F0ED
:101EE000BCCF209133013091340180919C03213D7E
:101EF000314014F0806801C08F7780939C038091FB
:101F00002B0190912C01BC010E94D5036B017C0137
:101F10008091330190913401BC010E94D5034601A8
:101F20005701860E971EA81EB91E80912F01909111
:101F30003001BC010E94D503680D791D8A1D9B1DCF
:101F40000E94C01B8B019C0135952795179507951D
:101F5000B9EFCB2EDD24DA94BFE1EB2EBFE5FB2EEB
:101F600026013701401A510A620A730A27E336E351
:101F700044E35FE30E944C1CA30192010E944C1CAD
:101F8000A30192010E944C1C9B01AC0166EF78E416
:101F900087ED9FE30E94A91A9B01AC01C301B20126
:101FA0000E944C1C6B8F7C8F8D8F9E8F00912B011C
:101FB00010912C012091330130913401032E000C3B
:101FC000440B550BB801012E000C880B990B0E9495
:101FD0006B0490930F0380930E03C501B4010E941C
:101FE000C01B2B013C01DC01CB01B595A795979552
:101FF0008795C81AD90AEA0AFB0A27E336E344E3BD
:102000005FE3C301B2010E944C1CA70196010E942C
:102010004C1CA70196010E944C1C9B01AC0166EF71
:1020200078E487ED9FE30E94A91A9B01AC01C701E8
:10203000B6010E944C1CA30192010E944C1C0E94FC
:10204000881B9B01AC0180912F0190913001BC0154
:10205000990F880B990B0E946B0490931103809346
:102060001003A0912301B0912401A50194010E94C5
:102070004C1D6B017C01B80180911F0190912001E2
:102080000E94D5034B015C016091330170913401D2
:1020900080912701909128010E94D503A501940108
:1020A000260F371F481F591FA0912F01B0913001F3
:1020B0000E944C1D46015701861A970AA80AB90AC0
:1020C000C501B4010E94C01B2B8D3C8D4D8D5E8DD2
:1020D0000E944C1C0E94881B9B01AC0160912B014B
:1020E00070912C0180912701909128012AAF3BAF7C
:1020F0004CAF5DAF0E94D5036B017C016091330151
:102100007091340180911F01909120010E94D503AC
:1021100046015701861A970AA80AB90AC501B401EF
:102120002AAD3BAD4CAD5DAD0E946B046AE070E042
:102130000E94D91C709313036093120364E670E04D
:1021400080913301909134010E94D50320E032E068
:1021500040E050E00E940F1D20931C0184E690E0B7
:10216000821B910927FD939597FD12C08536910535
:1021700014F084E690E048E2489F9001499F300DBA
:102180001124C901F3E095958795FA95E1F702C00E
:1021900080E090E090938F0480938E046F89788D17
:1021A000898D9A8D0E94C01B2B8D3C8D4D8D5E8D2F
:1021B0000E944C1C0E94881B20919C0321FD14C08E
:1021C00040910D0450910E049A01E3E03595279556
:1021D000EA95E1F75A01A21AB30A9501260F371FB3
:1021E00030930E0420930D0420910D0430910E04C1
:1021F00043E0359527954A95E1F7AB01421B530B18
:102200005093100440930F040E94580280910003E1
:102210009091010390937304809372048091020360
:102220009091030390937504809374048091040348
:102230009091050390937704809376040E94B100F7
:102240002B012091C9043091CA042D3D05E03007CF
:10225000A4F080913803203D17E0310754F4B90110
:102260006C5D7540869FA001879F500D1124852FBE
:10227000869590E8992E981A02C090E8992E2090A1
:102280003603312C03EC602E04E0702E40E954E05C
:102290005CA74BA786E193E09C8F8B8F5C01FA01D2
:1022A00040E050E080E8882ED3016D917D913D01A2
:1022B0006D3DB5E07B072CF0603D07E0700764F0F2
:1022C00008C08CED95E0861B970B843F11E09107C9
:1022D00034F084EF91E006C0CB018C5D95408730EF
:1022E000910514F0069702C080E090E0423051055D
:1022F00009F469C08C01000F012F001F110B11950B
:10230000D801AA0FBB1FA553BD4FED90FC90F88ECE
:10231000EF8A7801EE0CFF1CD701A353BD4FED905F
:10232000FC90AF89B88DEA1AFB0A1695102F00278A
:10233000179507956C01C01AD10AEC9C8001ED9CA1
:10234000100DFC9C100D1124000F012F001F110B0C
:1023500011950A0F1B1F11830083829DD001839D5D
:10236000B00D929DB00D11248B2F8695B82DB81B02
:10237000B99DC0011124880F892F881F990B919551
:10238000D501FC90F89E8001F99E100D1124000FDC
:10239000012F001F110B1195DA01A457BB4F0C93AD
:1023A000D50112961C91189FD001199FB00D1124D0
:1023B000CD01880F892F881F990B9195DA01A258BA
:1023C000BB4F8C9302C0918380836C3D75403CF47D
:1023D00080819181919581959109918380834F5F4F
:1023E0005F4F329603E0A00EB11C4330510509F057
:1023F0005BCF2C3414E031073CF0213D47E034073B
:102400002CF020ED37E002C02CE434E02C543440B2
:10241000AFEFB9E00E94361D24E833E040E050E021
:102420000E94ED1C832F9927FC01EE0FFF1FEB5438
:10243000FD4F60817181FC01EE0FFF1FE954FD4FDC
:102440000190F081E02DE61BF70B982F882789017A
:10245000081B190BE09FC001E19F900DF09F900DAC
:102460001124892F9927680F791F7093970460931F
:10247000960480916B0491E0980F90936B0463E055
:102480000E94B91C913009F041C083E480937C0024
:1024900080917A00806480937A0080917A0086FD32
:1024A000FCCF209178008091790030E0382B40916A
:1024B0006804E42FF0E0EE0FFF1FE85BFB4F809114
:1024C000690490916A0460817181861B970B820F69
:1024D000931F90936A0480936904318320834F5F34
:1024E0004F70409368049C0174E0369527957A9567
:1024F000E1F74AE0429FC001439F900D1124609193
:102500008E0370E00E94C51C6093D50280919E03EB
:1025100090919F0340978CF080919C0381FF0DC0A8
:1025200082E080939D0580919E0390919F03863A5F
:1025300091051CF081E080939D0580919E03909110
:102540009F03409724F080919C0381FF69C780918D
:102550009E0390919F03892B11F410929D05809109
:10256000AD04882321F081E080939F0502C0109282
:102570009F059091910380914D01891710F483E09C
:1025800010C08091D50220918F03281710F0803160
:1025900018F41092A2050EC020919003281720F481
:1025A00081E08093A20506C0981710F482E0F9CF6D
:1025B000813128F780916F029091700201968636E2
:1025C000910520F081E08093A50502C01092A50539
:1025D00081E080931F0480919D05813019F400ED06
:1025E00017E058C0823021F08091A405813069F451
:1025F00002E310E022E330E048EC50E068EC70E0E9
:1026000082E390E00E94480773C080919C0581306E
:1026100049F400E010E022E330E040E050E060E008
:1026200070E0EECF823039F400E010E022E330E0D9
:1026300040E050E00FC0833019F400E010E006C025
:1026400080919F05813049F402E310E022E330E0FD
:1026500042E350E062E370E0D3CF8091A105813086
:1026600061F38091A205833019F400ED17E0C2CF29
:10267000823039F400ED17E022E330E040E050E032
:10268000BDCF813009F4ABCF8091A305813049F4EF
:1026900008EC10E022E330E040E050E060E070E061
:1026A0000AC0823059F408EC10E022E330E040E048
:1026B00050E068EC70E088EC90E0A4CF833039F40F
:1026C00008EC10E022E330E048EC50E0F2CF8091DB
:1026D000A705813059F400E010E020E030E040E050
:1026E00050E060E070E080E090E08CCF0E94400716
:1026F0001092A40580919F049091A004892B31F43D
:102700008091140390911503892B11F01D9A08C034
:1027100080919C0382FD2D9880919C0381FD2D9AD0
:102720006091DD047091DE048091DF049091E004FB
:1027300028E438EE41E050E00E94ED1C277081E073
:1027400090E001C0880F2A95EAF790912004892330
:1027500011F02C9A01C02C984091DD045091DE04B8
:102760006091DF047091E0048091440490914504ED
:10277000A0914604B091470484179507A607B707B0
:1027800000F580919C0387FD19C08B7F80939C038B
:102790001D9A8091DD049091DE04A091DF04B09138
:1027A000E00480569947AE4FBF4F80934404909306
:1027B0004504A0934604B093470403C0846080930B
:1027C0009C030E94B1001092B40290916E0180911E
:1027D0002104981B612C22E0722E12E33EE9832E25
:1027E00037E0932E48EEA42E43E0B42EEE24E3947B
:1027F000F12C00EF8FEF890F992309F402C2909119
:102800006D0120916C01921B9F779F3408F0F9C1F4
:1028100090912104E92FF0E0E159FE4F20813091A1
:102820006E01391719F09F5F909321049091430432
:10283000911104C091E0243259F4DFC1913019F4B0
:102840002D3431F4D4C1923029F42C3309F4D1C1A0
:1028500090E0D3C1933069F4213408F0D0C12093C3
:1028600042042093B302109241041092B20294E009
:10287000C4C1943049F42093B1029091B302292746
:102880002093B30295E0B9C1953009F0B6C1E0914B
:102890004104409142043091B302E41760F43227BE
:1028A0003093B30231E03E0F30934104F0E0EF5833
:1028B000FD4F2083A2C132139EC18091B1028537A2
:1028C00009F457C108F064C08D3609F446C130F5EB
:1028D000873609F421C1B0F4853609F4D6C008F072
:1028E00017C1843609F07CC1098383E08A831B8287
:1028F00080E090E0A0E0B0E78C839D83AE83BF834F
:1029000067E003C1893609F424C108F413C18C3689
:1029100009F066C166E08EE093E05FC1813709F49B
:102920002BC148F48F3609F41CC108F01EC167E0C2
:1029300085ED92E052C1833709F432C108F020C11D
:102940001A82198280919203909193039C838B83C6
:102950009E828D82B886AF8280918C0390918D0388
:102960009A8789871C861B861D861E861F86188A65
:102970001A8A198A80918E038B8B80918F038C8B9E
:10298000809190038D8B809191038E8B66E1BDC009
:102990008F3C09F460C0E8F48A3C09F448C088F42C
:1029A000883709F4BDC0883CD1F1873709F018C1D8
:1029B0006AE080E00E94840398E6C92E90E0D92E58
:1029C000E4C08C3C09F441C0C0F18D3C09F4F3C073
:1029D00007C18F3E09F4B2C050F4833D09F44FC0E3
:1029E000843D09F4A1C0803D09F0FAC0DDC08A3FF2
:1029F00009F4EAC08E3F09F4EDC0803F09F0F0C051
:102A000064E080E00E94840362E08DE393E00E9432
:102A10002B1A62E08BE393E00E942B1AE5C060E181
:102A200081E394E00E94141A10933004E4C00E94E1
:102A30004A1A6EE186E193E005C00E944A1A64E1F9
:102A40008FE393E00E94141AD6C00E944A1A67E0EE
:102A500084E393E0F7CF0E944A1A66E1CE01019623
:102A60000E94141A8B819C8190939303809392030C
:102A700089859A8590938D0380938C03BCC00E94B6
:102A80004A1A62E08CE093E0DDCF80919804909147
:102A900099049A83898380916F02909170029C833C
:102AA0008B83FE82ED8220919C0323FF05C082E090
:102AB00090E0A0E0B0E003C080E090E0DC0124FD05
:102AC000846025FD88603091AD04311180613091C2
:102AD000AE04311180623091AF04311180643091C5
:102AE000B004311180683091B1043111916030919E
:102AF000B2043111926021FD81608F839887A9878C
:102B0000BA87809186058B876BE0CE01019665C000
:102B100062E18EEE92E061C060E18DE391E05DC024
:102B200068E384E593E059C00E944A1A68E384E5AB
:102B300093E088CF60E18EED92E04FC00E944A1A88
:102B400062E08DE393E00E94141A62E08BE393E06D
:102B500079CF68E183EC94E040C066E08AE294E0DB
:102B60003CC067E084E393E038C06EE186E193E027
:102B700034C085EB90E006C064E18FE393E02DC0A4
:102B800082E790E00E94611A36C0F60184910E94AB
:102B90006C03FFEFCF1ADF0A29AD2C11F6CF24C04A
:102BA00068E085E391E019C080919C0381FD0FC02E
:102BB0000E946A060CC080919C0381FD08C070923F
:102BC000A00460929F0403C080E00E9444060E941B
:102BD0004A1A11C068E082E294E00E94501A0BC0C9
:102BE00060E081E00E9484030E943C1A04C092E0ED
:102BF00004C093E002C090E080E090934304982FDB
:102C0000F9CD10919C03012F02700FAB11FF0AC088
:102C10008091D502813130F090914D01891710F4E7
:102C200080934D010E94B100641975096A387240A1
:102C3000CCF30E945802E2E7F4E0B4EFCB2EB2E00E
:102C4000DB2E0CE6E02E04E0F02E83E0A82EB12C63
:102C5000D6011C962D913C911D9780819181280F62
:102C6000391F21933193D7018D919C91820F931F2E
:102C7000B5010E94D91CD6016D937D936D013595E8
:102C80002795D7012D933D937D01B4E0E837FB07ED
:102C9000F9F62091940430919504A9014B5B5F4FA4
:102CA00080911203909113034B38510568F515FF7D
:102CB0002BC040910C0350910D03841B950B8D3458
:102CC000EFEF9E0714F488599E4F843B910514F052
:102CD0008856914017FD04C040919D034370C1F098
:102CE00060912E03689FA001699F500D1124CA01B5
:102CF000F5E095958795FA95E1F7281B390B309308
:102D000095042093940404C090930D0380930C03C6
:102D1000012F087171F020919604309197048091F1
:102D20008E0490918F04820F931F90939704809349
:102D3000960414FF22C0C0909204D0909304D7FE52
:102D400003C0D194C194D1088091900490919104D2
:102D500097FF03C09195819591099601C816D906F0
:102D60000CF49C012130F2E03F0714F020E032E047
:102D70006901330FEE08FF0803C0C12CD12C760186
:102D8000EBEB6E2EE4E07E2E2CE834E03AAB29AB80
:102D900048E854E05EA34DA384E894E09CA38BA391
:102DA000A0E8B4E0BAA3A9A3EEE7F4E0F8ABEFA77C
:102DB00028E734E03EA72DA743EB54E0588F4F8B14
:102DC000212C312CABA5BCA5AD90BD90BCA7ABA769
:102DD000AA0CBB1CEF8DF8A126813781D3014D9140
:102DE0005C91C90137FF04C088279927821B930B88
:102DF00081389240ACF4C501821B930B840F951F60
:102E00008138EEE39E0714F080E89EE38038F1EC11
:102E10009F0714F480E891ECD3018D939C9303C039
:102E2000F30111821082D3018D919C91880F892F1B
:102E3000881F990BEB8DFC8D2181289FD001299F44
:102E4000B00D11242D0136E0559447943A95E1F7E1
:102E5000608170E0C5010E94D5039B01AC0166E072
:102E600055954795379527956A95D1F72BAB3CAB90
:102E70004DAB5EAB8BA89CA8002309F497C0F10171
:102E8000E959FE4F808191818A0D9B1D853F31E07C
:102E9000930714F084EF91E08C304EEF940714F414
:102EA0008CE09EEFF101E25FFC4F208131815C01FB
:102EB000A21AB30AF101EA5EFC4F85A196A18A0D20
:102EC0009B1DAF89B88D8D909C90880E991EB1E1A5
:102ED0008B16B7E29B0624F0B0E18B2EB7E29B2E57
:102EE000E0EF8E16E8ED9E0624F4A0EF8A2EA8ED02
:102EF0009A2EAF89B88D8D929C9260912B0370E0D1
:102F00000E94D503AB01BC01F7E075956795579515
:102F10004795FA95D1F780912D03B5E08B9FC001BD
:102F20001124AA24BB24A81AB90A4A155B052CF05F
:102F30005A01841795070CF45C0160912C0370E032
:102F4000C4010E94D5039B01AC016CE055954795E7
:102F5000379527956A95D1F72FA338A749A75AA780
:102F6000D201A21BB30BA70196010E944C1DDC01EC
:102F7000CB0179E0B595A795979587957A95D1F787
:102F80004FA058A4480E591EABA9BCA9AA19BB0949
:102F90000E944C1DDC01CB01E9E0B595A795979502
:102FA0008795EA95D1F74501880E991EA9A9BAA976
:102FB0006D91BAABA9AB70E0EF8DF8A186819781D6
:102FC0000E94D503092C000CAA08BB08DC01CB0128
:102FD00026E0B595A795979587952A95D1F7881AF4
:102FE000990AAA0ABB0AAF8DB8A116968D919C9139
:102FF0001797EDA1FEA120813181AC01421B530B3B
:103000009A0181939193FEA3EDA3ABA1BCA14D9135
:103010005C911197E9A1FAA180819181840F951F9C
:1030200041935193FAA3E9A32D933D93BCA3ABA382
:10303000AFA5B8A96D91B8ABAFA770E0820F931F91
:103040000E94D503D201A80DB91DAB01BC0135E02A
:1030500075956795579547953A95D1F7A41BB50B8C
:10306000EDA5FEA5A193B193FEA7EDA7F2E02F0E6B
:10307000311C2F8D38A12E5F3F4F38A32F8F32E0A8
:10308000630E711C4B8D5C8D4D5F5F4F5C8F4B8F62
:103090008F89988D0296988F8F8B94E02916310432
:1030A00009F090CE6091370370E0615F7F4F660F4B
:1030B000771F80919404909195040E94D5034B0151
:1030C0005C0185E0B594A794979487948A95D1F78D
:1030D0008091F8029091F9027401E81AF90A60915E
:1030E0001D0370E0C7010E94D5034090B7045090C3
:1030F000B8046090B9047090BA04940197FE04C0BB
:1031000022273327281939092333310524F5DC0117
:10311000CB01840D951DA61DB71D8F3FEFEF9E07B8
:10312000AE07EFE0BE0724F08EEF9FEFAFEFBFE0FA
:1031300082309105A105F0EFBF0724F482E090E012
:10314000A0E0B0EF8093B7049093B804A093B904C3
:10315000B093BA0408C01092B7041092B804109249
:10316000B9041092BA0460911C0370E0C7010E9478
:10317000D503AB01BC01B6E07595679557954795AA
:10318000BA95D1F790911E032CE231E04901891ADA
:1031900091082227332728193909421753072CF0A1
:1031A0009A01841695060CF494014091B70450914D
:1031B000B8046091B9047091BA04ADE07595679553
:1031C00057954795AA95D1F746300FEF500734F041
:1031D0004B3F51052CF04AEF50E002C046E05FEF54
:1031E000C901840F951F90937D0480937C04A09166
:1031F0009604B09197042091780430917904AD0140
:10320000421B530B60917A0470917B04FA01E60F24
:10321000F71FE81BF90BF093DF02E093DE02461B79
:10322000570B480F591F5093E1024093E0022A0FB9
:103230003B1FA901460F571F480F591F5093E30228
:103240004093E202261B370B281B390B3093E50213
:103250002093E4028091D50220919103821758F4C3
:103260008AE290E0821B910997FD11C00D978CF4C2
:10327000EAE2E21B0FC08B3250F42AE230E0281B56
:1032800031092D3031052CF4EAE2E81B03C0E0E0FF
:1032900001C0ECE0F0E0E65AFE4FA080FEEDEF2E1C
:1032A000F2E0FF2E67010A2C000CBB08D6018D90BE
:1032B0009C909401285E3340D5010E942E1D24EF7E
:1032C00031E040E050E00E940F1D280D391DF6014D
:1032D000219331936F01F6EECF16F2E0DF0631F75E
:1032E0002091DE023091DF028091E0029091E102B4
:1032F000821793070CF4C9012091E2023091E30296
:10330000821793070CF4C9012091E4023091E50281
:10331000821793070CF4C901609192037091930393
:10332000C090C904D090CA0404E04EE957E0481B9D
:10333000590B1074A8EEB3E08F3927E092073CF0E8
:10334000F70120813181240F351F31832083F7015C
:1033500020813181261737073CF02F39F7E03F07EE
:1033600024F02EE937E001C09B01F701318320836F
:10337000FCE4CF16F4E0DF062CF4111103C0F701D2
:10338000B183A0838FA8811003C0F701B183A0830C
:103390000150F2E0EF0EF11C0111CECF0E94A80304
:1033A00080E090E0892B11F40C94BC090E9400008D
:1033B0000C94B0090E94050780919C038E7F809336
:1033C0009C030C94A70A80919C0384FF08C0109270
:1033D000BC041092BB041092BE041092BD048091F4
:1033E0009C038F7E0C94B40C80919C038F7D809302
:1033F0009C030C94D40C83FF08C01092BC04109260
:10340000BB041092BE041092BD0480919C03877F80
:103410000C949C0C409A0C94D40C40980C94D40CB2
:1034200081E080939D0593C86150A0F02091B40283
:1034300030E0F901EE54FD4F408151E0540F5083CC
:103440002F583D4FF901E40FF11D2081FC0121931C
:10345000CF01EACF08951F93CF93DF93C82FD92FC1
:10346000162F180F1C1721F089910E946C03FACFB8
:10347000DF91CF911F910895E091B402F0E0ED54F7
:10348000FD4F80810E946C03E1ECF0E0808180625E
:103490008083089560E080E00E9484030C943C1ACD
:1034A0000F931F93CF938C01C62F80E00E9484035B
:1034B0006C2FC8010E942B1ACF911F910F910C9471
:1034C0003C1ACF93DF93EC010E94781A682F80E0BA
:1034D0000E948403FE018491882331F0FE018491CF
:1034E0000E946C032196F6CFDF91CF910C943C1A89
:1034F000FC0105900020E9F7809590958E0F9F1FA5
:103500000895DC01CB01FC01F999FECF06C0F2BDA4
:10351000E1BDF89A319600B40D9241505040B8F791
:103520000895DC01CB0103C02D910E949C1A4150EB
:103530005040D0F70895262FF999FECF1FBA92BDBB
:1035400081BD20BD0FB6F894FA9AF99A0FBE019684
:1035500008955058BB27AA270E94C11A0C94121C28
:103560000E94041C38F00E940B1C20F039F49F3F8D
:1035700019F426F40C94011C0EF4E095E7FB0C946E
:10358000FB1BE92F0E94231C58F3BA17620773072D
:103590008407950720F079F4A6F50C94451C0EF4E9
:1035A000E0950B2EBA2FA02D0B01B90190010C0153
:1035B000CA01A0011124FF27591B99F0593F50F46B
:1035C000503E68F11A16F040A22F232F342F4427C3
:1035D000585FF3CF469537952795A795F0405395BB
:1035E000C9F77EF41F16BA0B620B730B840BBAF08B
:1035F0009150A1F0FF0FBB1F661F771F881FC2F7F6
:103600000EC0BA0F621F731F841F48F48795779509
:103610006795B795F7959E3F08F0B0CF9395880FC3
:1036200008F09927EE0F9795879508950E942A1B19
:103630000C94121C0E940B1C58F00E94041C40F0B9
:1036400029F45F3F29F00C94FB1B51110C94461C8C
:103650000C94011C0E94231C68F39923B1F3552399
:1036600091F3951B550BBB27AA2762177307840795
:1036700038F09F5F5F4F220F331F441FAA1FA9F32B
:1036800035D00E2E3AF0E0E832D091505040E69519
:10369000001CCAF72BD0FE2F29D0660F771F881F7A
:1036A000BB1F261737074807AB07B0E809F0BB0B6D
:1036B000802DBF01FF2793585F4F3AF09E3F510581
:1036C00078F00C94FB1B0C94461C5F3FE4F3983E8F
:1036D000D4F3869577956795B795F7959F5FC9F76A
:1036E000880F911D9695879597F90895E1E0660FEB
:1036F000771F881FBB1F621773078407BA0720F064
:10370000621B730B840BBA0BEE1F88F7E0950895CC
:103710000E948F1B6894B1110C94461C08950E945E
:103720002B1C88F09F5798F0B92F9927B751B0F00C
:10373000E1F0660F771F881F991F1AF0BA95C9F735
:1037400014C0B13091F00E94451CB1E008950C9472
:10375000451C672F782F8827B85F39F0B93FCCF325
:10376000869577956795B395D9F73EF490958095B2
:10377000709561957F4F8F4F9F4F0895E89409C0D2
:1037800097FB3EF490958095709561957F4F8F4F94
:103790009F4F9923A9F0F92F96E9BB279395F695AA
:1037A000879577956795B795F111F8CFFAF4BB0F28
:1037B00011F460FF1BC06F5F7F4F8F4F9F4F16C08C
:1037C000882311F096E911C0772321F09EE8872F16
:1037D000762F05C0662371F096E8862F70E060E0D2
:1037E0002AF09A95660F771F881FDAF7880F96954B
:1037F000879597F9089597F99F6780E870E060E0F2
:1038000008959FEF80EC089500240A941616170679
:1038100018060906089500240A94121613061406C1
:1038200005060895092E0394000C11F4882352F024
:10383000BB0F40F4BF2B11F460FF04C06F5F7F4FDC
:103840008F4F9F4F089557FD9058440F551F59F0C3
:103850005F3F71F04795880F97FB991F61F09F3F7D
:1038600079F087950895121613061406551FF2CFA6
:103870004695F1DF08C0161617061806991FF1CFF6
:1038800086957105610508940895E894BB2766271D
:103890007727CB0197F908950E945F1C0C94121CA6
:1038A0000E94041C38F00E940B1C20F0952311F09C
:1038B0000C94FB1B0C94011C11240C94461C0E94BC
:1038C000231C70F3959FC1F3950F50E0551F629F25
:1038D000F001729FBB27F00DB11D639FAA27F00D69
:1038E000B11DAA1F649F6627B00DA11D661F829F90
:1038F0002227B00DA11D621F739FB00DA11D621F75
:10390000839FA00D611D221F749F3327A00D611D91
:10391000231F849F600D211D822F762F6A2F112473
:103920009F5750409AF0F1F088234AF0EE0FFF1FA6
:10393000BB1F661F771F881F91505040A9F79E3FFD
:10394000510580F00C94FB1B0C94461C5F3FE4F384
:10395000983ED4F3869577956795B795F795E79553
:103960009F5FC1F7FE2B880F911D9695879597F95C
:103970000895991B79E004C0991F961708F0961BCB
:10398000881F7A95C9F780950895AA1BBB1B51E142
:1039900007C0AA1FBB1FA617B70710F0A61BB70BBF
:1039A000881F991F5A95A9F780959095BC01CD0164
:1039B000089597FB072E16F4009407D077FD09D0E1
:1039C0000E94C51C07FC05D03EF4909581959F4F41
:1039D0000895709561957F4F0895A1E21A2EAA1B54
:1039E000BB1BFD010DC0AA1FBB1FEE1FFF1FA217AF
:1039F000B307E407F50720F0A21BB30BE40BF50BAC
:103A0000661F771F881F991F1A9469F76095709534
:103A1000809590959B01AC01BD01CF010895052EC5
:103A200097FB1EF400940E94261D57FD07D00E94AC
:103A3000ED1C07FC03D04EF40C94261D50954095C8
:103A4000309521953F4F4F4F5F4F0895909580954A
:103A5000709561957F4F8F4F9F4F08950E94361D3F
:103A6000332312F48A1B9B0B0C94471DA29FB001B9
:103A7000B39FC001A39F700D811D1124911DB29FA2
:103A8000700D811D1124911D08950E94361DB7FFF0
:103A90000895821B930B0895B7FF0C94541D0E9448
:103AA000541D821B930B08950E94361DA59F900DF7
:103AB000B49F900DA49F800D911D11240895F8943A
:023AC000FFCF36
:103AC200B000B000DE05DE05DE05DE05DE05DE0542
:103AD200DE05DE05DE05DE05DE05DE05640000002E
:103AE20000000000010000000000000000000000D3
:103AF2000000000002090A0B030605100CDC05DCBD
:103B020005DC05DC05DC05DC05DC05E8032A000133
:103B120003020405060708090A0B00081119222CE2
:0C3B220036414C5763707E00000000002C
:107800000C94343C0C94513C0C94513C0C94513CE1
:107810000C94513C0C94513C0C94513C0C94513CB4
:107820000C94513C0C94513C0C94513C0C94513CA4
:107830000C94513C0C94513C0C94513C0C94513C94
:107840000C94513C0C94513C0C94513C0C94513C84
:107850000C94513C0C94513C0C94513C0C94513C74
:107860000C94513C0C94513C11241FBECFEFD8E036
:10787000DEBFCDBF11E0A0E0B1E0ECE9FFE702C060
:1078800005900D92A230B107D9F712E0A2E0B1E065
:1078900001C01D92AD30B107E1F70E942D3D0C945F
:1078A000CC3F0C94003C982F959595959595959582
:1078B000905D8F708A307CF0282F295A8091C0000B
:1078C00085FFFCCF9093C6008091C00085FFFCCF60
:1078D0002093C6000895282F205DF0CF982F809127
:1078E000C00085FFFCCF9093C6000895EF92FF92F1
:1078F0000F931F93EE24FF2487018091C00087FD22
:1079000017C00894E11CF11C011D111D81E4E8164B
:1079100082E4F8068FE0080780E0180770F3E09132
:107920000401F091050109958091C00087FFE9CF1E
:107930008091C6001F910F91FF90EF9008950E94D3
:10794000763C982F8091C00085FFFCCF9093C600B5
:1079500091362CF490330CF09053892F089597555D
:10796000892F08951F930E949F3C182F0E949F3CCF
:107970001295107F810F1F9108951F93182F882350
:1079800021F00E94763C1150E1F71F9108951F935A
:10799000182F0E94763C803249F0809103018F5F5E
:1079A000809303018530C1F01F9108958091C0003C
:1079B00085FFFCCF84E18093C6008091C00085FFE5
:1079C000FCCF1093C6008091C00085FFFCCF80E102
:1079D0008093C6001F910895E0910401F091050184
:1079E00009951F9108950E94763C803241F0809164
:1079F00003018F5F80930301853081F008958091AA
:107A0000C00085FFFCCF84E18093C6008091C00058
:107A100085FFFCCF80E18093C6000895E0910401CA
:107A2000F09105010995089540E951E08823A1F0FE
:107A30002D9A28EE33E0FA013197F1F721503040CA
:107A4000D1F72D9828EE33E0FA013197F1F7215064
:107A50003040D1F7815061F708953F924F925F9285
:107A60006F927F928F929F92AF92BF92CF92DF924E
:107A7000EF92FF920F931F93CF93DF93000080E16B
:107A80008093C4001092C50088E18093C10086E015
:107A90008093C2005098589A259A81E00E94143D24
:107AA00024E1F22E9EE1E92E85E9D82E0FE0C02ECA
:107AB00010E1B12EAA24A394B1E49B2EA6E58A2E50
:107AC000F2E57F2EE0E26E2E79E4572E63E5462E36
:107AD00050E5352E0E94763C8033B1F18133B9F107
:107AE000803409F46FC0813409F476C0823409F41B
:107AF00085C0853409F488C0803531F1823521F1A3
:107B0000813511F1853509F485C0863509F48DC0BC
:107B1000843609F496C0843709F403C1853709F423
:107B200072C1863709F466C0809103018F5F80932C
:107B30000301853079F6E0910401F0910501099582
:107B40000E94763C803351F60E94F33CC3CF0E94E2
:107B5000763C803249F78091C00085FFFCCFF092DF
:107B6000C6008091C00085FFFCCF9092C600809136
:107B7000C00085FFFCCF8092C6008091C00085FFC9
:107B8000FCCF7092C6008091C00085FFFCCF609250
:107B9000C6008091C00085FFFCCF5092C600809146
:107BA000C00085FFFCCF4092C6008091C00085FFD9
:107BB000FCCF3092C6008091C00085FFFCCFB09210
:107BC000C60088CF0E94763C863808F4BDCF0E945C
:107BD000763C0E94F33C7ECF0E94763C803809F4CC
:107BE0009CC0813809F40BC1823809F43CC1883942
:107BF00009F48FC080E00E94C73C6CCF84E10E94F2
:107C0000BD3C0E94F33C66CF85E00E94BD3C0E94D3
:107C1000F33C60CF0E94763C809306010E94763C44
:107C2000809307010E94F33C55CF0E94763C80333D
:107C300009F41DC183E00E94BD3C80E00E94C73C66
:107C400049CF0E94763C809309020E94763C809343
:107C5000080280910C028E7F80930C020E94763C79
:107C6000853409F415C18091080290910902892B8D
:107C700089F000E010E00E94763CF801E85FFE4FDA
:107C800080830F5F1F4F80910802909109020817AF
:107C9000190788F30E94763C803209F045CF809125
:107CA0000C0280FF01C16091060170910701660F0F
:107CB000771F7093070160930601A0910802B091AD
:107CC00009021097C9F0E8E0F1E09B01AD014E0F09
:107CD0005F1FF999FECF32BD21BD819180BDFA9A17
:107CE000F99A2F5F3F4FE417F50799F76A0F7B1F4B
:107CF00070930701609306018091C00085FFFCCF5F
:107D0000F092C6008091C00085FFFCCFB092C60003
:107D1000E1CE83E00E94C73CDDCE82E00E94C73CFA
:107D2000D9CE0E94763C809309020E94763C8093D3
:107D300008028091060190910701880F991F909386
:107D40000701809306010E94763C853409F4A6C0A1
:107D500080910C028E7F80930C020E94763C8032D0
:107D600009F0B8CE8091C00085FFFCCFF092C6002C
:107D7000609108027091090261157105B9F140E046
:107D800050E080910C02A82FA170B82FB27011C0E2
:107D9000BB2309F45CC0E0910601F0910701319624
:107DA000F0930701E09306014F5F5F4F46175707B7
:107DB000E8F4AA2369F3F999FECF209106013091E6
:107DC000070132BD21BDF89A90B58091C00085FFB2
:107DD000FCCF9093C6002F5F3F4F30930701209355
:107DE00006014F5F5F4F4617570718F38091C00099
:107DF00085FDE5CE8091C00085FFF8CFE0CE81E023
:107E00000E94C73C67CE0E94763C803209F08CCE3F
:107E10008091C00085FFFCCFF092C6008091C00029
:107E200085FFFCCFE092C6008091C00085FFFCCFAB
:107E3000D092C6008091C00085FFFCCFC092C600E2
:107E40008091C00085FFFCCFB092C60043CEE09188
:107E50000601F091070194918091C00085FFFCCF4D
:107E60009093C6009CCF80E10E94C73C33CE0E9415
:107E7000763C0E94763C182F0E94763C112309F430
:107E800083C0113009F484C08FE00E94C73C22CE29
:107E900080910C02816080930C02E5CE80910C02EF
:107EA000816080930C0259CF809107018823880F4D
:107EB000880B8A2180930B02809106019091070123
:107EC000880F991F90930701809306018091080203
:107ED00080FF09C080910802909109020196909359
:107EE000090280930802F894F999FECF1127E091D6
:107EF0000601F0910701C8E0D1E08091080290915D
:107F00000902103091F40091570001700130D9F34B
:107F100003E000935700E89500915700017001308D
:107F2000D9F301E100935700E89509901990009169
:107F3000570001700130D9F301E000935700E89534
:107F40001395103498F011270091570001700130FB
:107F5000D9F305E000935700E895009157000170B0
:107F60000130D9F301E100935700E895329602976A
:107F700009F0C7CF103011F00296E5CF112480919F
:107F8000C00085FFB9CEBCCE8EE10E94C73CA2CD19
:0C7F900085E90E94C73C9ECDF894FFCF0D
:027F9C00800063
:040000030000780081
:00000001FF